:020000040800F2
:100000000028002001110008911000089710000836
:100010009D100008A3100008A910000800000000AF
:10002000000000000000000000000000AF10000809
:10003000BB10000800000000C7100008D310000823
:100040004911000849110008491100084911000828
:100050004911000849110008491100084911000818
:100060004911000849110008491100084911000808
:1000700049110008491100084911000849110008F8
:1000800049110008491100084911000849110008E8
:1000900049110008491100084911000849110008D8
:1000A00049110008491100084911000849110008C8
:1000B000E110000849110008000000004911000883
:1000C000491100080000000000000000491100086C
:1000D000000000004911000849110008000000005C
:1000E00049110008491100084911000800000000EA
:1000F0000000000000000000000000000000000000
:0C01000000000000000000005FF808F1A3
:10010C0010B5054C237833B9044B13B10448AFF345
:10011C0000800123237010BD20000020000000008F
:10012C00AC27000808B5034B1BB103490348AFF3D8
:10013C00008008BD0000000024000020AC2700084F
:10014C0080B5C8B000AF3B1D186007F10803424AE8
:10015C00184611464FF48C731A4602F00BFB07F14C
:10016C0008013B1D1A681346DB009B1A9B000B44CD
:10017C001B68DBB21A460821384801F0E2FA07F195
:10018C0008013B1D1A681346DB009B1A9B000B44AD
:10019C0004331B68DBB21A461021304801F0D1FA47
:1001AC0007F108013B1D1A681346DB009B1A9B00E4
:1001BC000B4408331B68DBB21A462021274801F098
:1001CC00C0FA07F108013B1D1A681346DB009B1AA5
:1001DC009B000B440C331B68DBB21A4640211F48B2
:1001EC0001F0AFFA07F108013B1D1A681346DB005A
:1001FC009B1A9B000B4410331B68DBB21A46802100
:10020C00164801F09EFA07F108013B1D1A681346C7
:10021C00DB009B1A9B000B4414331B68DBB21A46A1
:10022C004FF480710D4801F08CFA07F108013B1D69
:10023C001A681346DB009B1A9B000B4418331B688F
:10024C00DBB21A464FF40071044801F07AFA00BF91
:10025C0007F59077BD4680BDC4270008000C01400F
:10026C0080B582B000AF78607B681B68032B00F20E
:10027C00958001A252F823F095020008DB020008D9
:10028C0021030008670300087B681B685A1C7B6805
:10029C001A6001224FF40061434801F052FA002227
:1002AC004FF48051404801F04CFA01224FF40051B8
:1002BC003D4801F046FA01224FF480413A4801F0E2
:1002CC0040FA3A4B5B681846FFF73AFF67E07B68E9
:1002DC001B685A1C7B681A6001224FF4006132487B
:1002EC0001F02FFA01224FF480512F4801F029FA26
:1002FC0000224FF400512C4801F023FA01224FF454
:10030C008041294801F01DFA284B9B681846FFF7DD
:10031C0017FF44E07B681B685A1C7B681A6001223B
:10032C004FF40061204801F00CFA01224FF4805187
:10033C001D4801F006FA01224FF400511A4801F051
:10034C0000FA00224FF48041174801F0FAF9174BDC
:10035C00DB681846FFF7F4FE21E07B6800221A6088
:10036C0000224FF40061104801F0EBF901224FF428
:10037C0080510D4801F0E5F901224FF400510A4873
:10038C0001F0DFF901224FF48041074801F0D9F95F
:10039C00064B1B681846FFF7D3FE00E000BF00BFFA
:1003AC000837BD4680BD00BF000C01403C0000205A
:1003BC0080B500AF00224FF400610E4801F0C1F986
:1003CC0001224FF480510B4801F0BBF901224FF48C
:1003DC000051084801F0B5F901224FF4804105485D
:1003EC0001F0AFF9044B1B681846FFF7A9FE00BFDC
:1003FC0080BD00BF000C01403C00002080B483B0E5
:10040C0000AF786039607B682B4A82FB0312921034
:10041C00DB17D31A294A13607968274B83FB012316
:10042C009A10CB17D21A13469B0013445B00CA1ABE
:10043C00224B5A603B68204A82FB03129210DB1756
:10044C00D31A1E4A936039681B4B83FB01239A1005
:10045C00CB17D21A13469B0013445B00CA1A174BD6
:10046C00DA60164BDB68002B07DC144B0022DA60D9
:10047C00124B9B68013B114A9360104B9B68002BFD
:10048C0002DC0E4B00229A600C4B5B68002B07DCE5
:10049C000A4B1B68013B094A1360084B00225A6047
:1004AC00064B1B68002B02DC044B00221A6000BFB9
:1004BC000C37BD4680BC7047676666663C00002002
:1004CC0080B500AF354B1B78032B5CD801A252F8DA
:1004DC0023F000BFF1040008090500083F050008DF
:1004EC006905000800F060FA002000F0F3F80346FC
:1004FC00012B4AD1294B01221A7046E000F038F941
:10050C000346274A82FB03129211DB17D31A0221EE
:10051C001846FFF773FF00F0D3F900F047F90020FD
:10052C0000F0D8F80346012B31D11C4B02221A7073
:10053C002DE000F027F9034603211846FFF75EFF74
:10054C0000F0BEF900F054F9002000F0C3F80346A7
:10055C00012B1ED1114B03221A701AE000F01CF96A
:10056C00034604211846FFF749FF00F0A9F900F0F3
:10057C0061F9002000F0AEF80346012B0BD1074BBC
:10058C0000221A7007E000BF06E000BF04E000BFC5
:10059C0002E000BF00E000BF00BF80BD4C000020A7
:1005AC00D34D621080B582B000AF00237B6076E043
:1005BC003F4A7B68134419783E4A7B6813440A46C9
:1005CC001A703D4A7B6813441978394A7B68134486
:1005DC000A461A700121394801F09CF80346194665
:1005EC00354A7B6813440A461A70314A7B681344B7
:1005FC001A7831497B680B441B789A424CD12D4AAE
:10060C007B6813441A782A497B680B441B789A42FE
:10061C0042D12B4A7B6813441A7827497B680B44D8
:10062C001B789A4219D0244A7B6813441978244ABF
:10063C007B6813440A461A701F4A7B6813441B7864
:10064C00002B29D11F4A7B68134400221A701E4AC2
:10065C007B68002122F813101EE01B4A7B6832F8DD
:10066C001330013399B2184A7B6822F81310164ADA
:10067C007B6832F81330632B0ED9144A7B68134411
:10068C0001221A70104A7B68002122F81310104BBB
:10069C001B6801330E4A13607B6801337B607B68F7
:1006AC00022B85DD00BF00BF0837BD4680BD00BFF3
:1006BC0008000020040000200C000020000C014069
:1006CC0010000020000000205400002050000020EA
:1006DC005C00002080B483B000AF0346FB71FB7953
:1006EC00022B01D9002311E0FB790B4AD35C002BC0
:1006FC0005D1FB79084A0121D154012306E0FB798D
:10070C00054AD35C002B01D00023FFE718460C37B9
:10071C00BD4680BC704700BF0000002080B483B091
:10072C0000AF7860034A7B68136000BF0C37BD468E
:10073C0080BC70476000002080B483B000AF78604C
:10074C00034A7B68136000BF0C37BD4680BC704702
:10075C006400002080B483B000AF7860034A7B68EB
:10076C00136000BF0C37BD4680BC7047680000208A
:10077C0080B400AF024B1B681846BD4680BC704766
:10078C006000002080B400AF024B1B681846BD46C9
:10079C0080BC70476400002080B400AF024B1B6823
:1007AC001846BD4680BC70476800002080B500AF7D
:1007BC00002212210C4800F0C4FF01226C210A48CF
:1007CC0000F0BFFF094B1B68012B0BD100F040FB65
:1007DC0003461946642000F063FB4FF4F0610248B5
:1007EC0000F0C7FF00BF80BD00080140880000205A
:1007FC0080B500AF002224210C4800F0A2FF01229A
:10080C005A210A4800F09DFF094B1B68012B0BD1A4
:10081C0000F01EFB03461946642000F041FB4FF428
:10082C00F061024800F0A5FF00BF80BD0008014048
:10083C008800002080B500AF002248210C4800F051
:10084C0080FF012236210A4800F07BFF094B1B6810
:10085C00012B0BD100F0FCFA03461946642000F082
:10086C001FFB4FF4F061024800F083FF00BF80BD16
:10087C00000801408800002080B582B000AF03461C
:10088C000A46FB801346BB800B4B1B68012B0ED119
:10089C0000F0DEFA03461946642000F001FBFA88EA
:1008AC00BB8813439BB21946044800F062FF00BF9B
:1008BC000837BD4680BD00BF8800002000080140FD
:1008CC0080B500AF074B1B68012B09D100F0C0FAB3
:1008DC0003461946642000F013FB0348FFF7C0FCE5
:1008EC0000BF80BD900000209400002098B500AFA0
:1008FC0000220221284800F024FF01220C21264866
:10090C0000F01FFF00224021234800F01AFF0122B3
:10091C006021214800F015FF00224FF420711E4881
:10092C0000F00FFF01224FF4A0611B4800F009FFFB
:10093C0041F28830FFF7F2FE4FF4FA60FFF7FCFE4D
:10094C0040F6B830FFF706FF144B1C6800F080FA35
:10095C0003461946204600F08BFA114B1C6800F038
:10096C0077FA03461946204600F0B2FA00F070FA06
:10097C0003461946642000F093FA00F069FA034626
:10098C001946642000F0BCFAFFF712FD054B00225B
:10099C001A6000BF98BD00BF000801406000002035
:1009AC00680000209400002090B583B000AF00F0E8
:1009BC00BFFA044600F04CFA034603FB04F3834AE7
:1009CC0082FB03129211DB17D31A7B6000F0BAFA88
:1009DC00044600F03DFA034603FB04F37B4A82FB1A
:1009EC0003129211DB17D31A3B6039687868FFF752
:1009FC0005FDFFF765FF764B1B78022B26D0022BEB
:100A0C0064DC002B02D0012B40D05FE000220221DD
:100A1C00704800F096FE4FF480718020FFF72CFF99
:100A2C0001220C216B4800F08CFE6B4B1B68012BD8
:100A3C004ED1674B02221A70684B1C6800F008FA02
:100A4C0003461946204600F013FA41E00022082123
:100A5C00604800F076FE4FF480718020FFF70CFFA9
:100A6C00012206215B4800F06CFE5B4B1B68012BDE
:100A7C0030D1574B01221A70594B1C6800F0E8F921
:100A8C0003461946204600F0F3F923E00022042126
:100A9C00504800F056FE4FF480718020FFF7ECFEBA
:100AAC0001220A214B4800F04CFE4B4B1B68012BDA
:100ABC0012D1474B00221A704A4B1C6800F0C8F93F
:100ACC0003461946204600F0D3F905E000BF04E0C8
:100ADC0000BF02E000BF00E000BF434B1B78022BBD
:100AEC0027D0022B67DC002B02D0012B42D062E016
:100AFC0000221021374800F024FE4FF480614FF49F
:100B0C000070FFF7B9FE01226021324800F019FE97
:100B1C00364B1B68012B50D1334B02221A702F4BD2
:100B2C001C6800F095F903461946204600F0D0F9F0
:100B3C0043E000224021274800F003FE4FF480617F
:100B4C004FF40070FFF798FE01223021214800F08D
:100B5C00F8FD264B1B68012B31D1234B01221A7057
:100B6C001F4B1C6800F074F903461946204600F030
:100B7C00AFF924E000222021164800F0E2FD4FF4EA
:100B8C0080614FF40070FFF777FE0122502111486D
:100B9C0000F0D7FD154B1B68012B12D1124B002214
:100BAC001A70104B1C6800F053F903461946204686
:100BBC0000F08EF905E000BF04E000BF02E000BFCA
:100BCC0000E000BF00BF0C37BD4690BDD34D621096
:100BDC006C00002000080140840000206800002008
:100BEC006400002060000020130000208C00002016
:100BFC0080B500AF00F0A4FA00F01AF800F0B4F8D9
:100C0C0000F052F8094801F0F9F941F28830FFF789
:100C1C0085FD4FF4FA60FFF78FFD40F6B830FFF713
:100C2C0099FDFFF763FEFFF74BFCFCE798000020F3
:100C3C0080B590B000AF07F11803282200211846A8
:100C4C0001F0A6FD3B1D00221A605A609A60DA6022
:100C5C001A610223BB610123BB621023FB620023D8
:100C6C007B6307F11803184600F09CFD0346002B2C
:100C7C0001D000F0F7F80F237B600023BB6000234A
:100C8C00FB6000233B6100237B613B1D0021184668
:100C9C0001F008F80346002B01D000F0E3F800BF88
:100CAC004037BD4680BD000080B586B000AF07F16F
:100CBC00080300221A605A609A60DA603B460022F0
:100CCC001A605A60254B4FF080421A60234B41F654
:100CDC003F725A60214B00229A60204B0922DA6045
:100CEC001E4B00221A611D4B00229A611B4801F019
:100CFC0035F90346002B01D000F0B4F84FF48053C3
:100D0C00BB6007F108031946144801F0CBFA0346FF
:100D1C00002B01D000F0A6F800233B6000237B6081
:100D2C003B4619460D4801F097FC0346002B01D0B9
:100D3C0000F098F8094B5B680133084AD26801321D
:100D4C0002FB03F3064AA2FB03235B0A1A46054B7C
:100D5C001A6000BF1837BD4680BD00BF9800002048
:100D6C00D34D62107000002080B586B000AF07F143
:100D7C00080300221A605A609A60DA60284B9B695B
:100D8C00274A43F004039361254B9B6903F004034A
:100D9C007B607B68224B9B69214A43F0080393617B
:100DAC001F4B9B6903F008033B603B68002240F239
:100DBC00FE711C4800F0C5FC002247F6F8311A48B9
:100DCC0000F0BFFC40F2FE73BB600123FB6000230C
:100DDC003B6102237B6107F108031946114800F0BF
:100DEC001FFB0723BB600023FB6000233B6107F163
:100DFC00080319460C4800F013FB47F6F833BB60A8
:100E0C000123FB6000233B6102237B6107F1080394
:100E1C001946054800F004FB00BF1837BD4680BDDD
:100E2C000010024000080140000C014080B582B067
:100E3C0000AF78607B681B68B3F1804F03D1FFF77C
:100E4C00B1FB00F089F800BF0837BD4680BD00003B
:100E5C0080B400AF024B1B681846BD4680BC70477F
:100E6C007000002080B400AF72B600BFFEE7000037
:100E7C0080B483B000AF786039607A683B6892FBCD
:100E8C00F3F3054A1360054B00221A6000BF0C37C0
:100E9C00BD4680BC704700BF740000208400002059
:100EAC0080B483B000AF786039607A683B6892FB9D
:100EBC00F3F3054A1360054B00221A6000BF0C3790
:100ECC00BD4680BC704700BF780000208800002021
:100EDC0080B483B000AF786039607A683B6892FB6D
:100EEC00F3F3054A1360054B00221A6000BF0C3760
:100EFC00BD4680BC704700BF7C0000208C000020E9
:100F0C0080B483B000AF786039607A683B6892FB3C
:100F1C00F3F3054A1360054B00221A6000BF0C372F
:100F2C00BD4680BC704700BF8000002090000020B0
:100F3C0080B400AF024B1B681846BD4680BC70479E
:100F4C007400002080B400AF024B1B681846BD46ED
:100F5C0080BC70477400002080B400AF194B1B6834
:100F6C00013B184A1360184B1B68013B164A13606F
:100F7C00164B1B68013B154A1360154B1B68013B54
:100F8C00134A13600F4B1B68002B02DC114B012220
:100F9C001A600D4B1B68002B02DC0E4B01221A60F1
:100FAC000A4B1B68002B02DC0A4B01221A60084B0F
:100FBC001B68002B02DC074B01221A6000BFBD46E8
:100FCC0080BC704774000020780000207C0000205A
:100FDC00800000208400002080B485B000AF154B49
:100FEC009B69144A43F001039361124B9B6903F014
:100FFC000103BB60BB680F4BDB690E4A43F08053A7
:10100C00D3610C4BDB6903F080537B607B680A4B2C
:10101C005B68FB60FB6823F0E063FB60FB6843F0FC
:10102C008063FB60044AFB68536000BF1437BD4605
:10103C0080BC7047001002400000014080B584B0B5
:10104C0000AF78607B681B68B3F1804F13D10C4BF9
:10105C00DB690B4A43F00103D361094BDB6903F0F5
:10106C000103FB60FB68002200211C2000F0A1F9A9
:10107C001C2000F0BAF900BF1037BD4680BD00BF80
:10108C000010024080B400AFFEE780B400AFFEE772
:10109C0080B400AFFEE780B400AFFEE780B400AFD1
:1010AC00FEE780B400AF00BFBD4680BC704780B483
:1010BC0000AF00BFBD4680BC704780B400AF00BF1E
:1010CC00BD4680BC704780B500AF00F07FF800BF14
:1010DC0080BD000080B500AF024800F0DBFF00BF10
:1010EC0080BD00BF9800002080B400AF00BFBD469B
:1010FC0080BC7047FFF7F8FF0B480C490C4A0023E3
:10110C0002E0D458C4500433C4188C42F9D3094AB1
:10111C00094C002301E013600432A242FBD301F01E
:10112C0005FBFFF765FD7047000000202000002044
:10113C000829000820000020E4000020FEE7000041
:10114C0080B500AF084B1B68074A43F010031360CF
:10115C00032000F023F90F2000F008F8FFF73CFF04
:10116C000023184680BD00BF0020024080B582B02D
:10117C0000AF7860124B1A68124B1B7819464FF46B
:10118C007A73B3FBF1F3B2FBF3F3184600F03BF9BF
:10119C000346002B01D001230EE07B680F2B0AD8ED
:1011AC00002279684FF0FF3000F003F9064A7B68A3
:1011BC001360002300E0012318460837BD4680BDAC
:1011CC00140000201C0000201800002080B400AF88
:1011DC00054B1B781A46054B1B681344034A1360D6
:1011EC0000BFBD4680BC70471C000020E000002002
:1011FC0080B400AF024B1B681846BD4680BC7047DC
:10120C00E000002080B485B000AF78607B6803F00C
:10121C000703FB600C4BDB68BB60BA684FF6FF033F
:10122C001340BB60FB681A02BB68134343F0BF63F7
:10123C0043F40033BB60044ABB68D36000BF14376F
:10124C00BD4680BC704700BF00ED00E080B400AF2D
:10125C00044BDB681B0A03F007031846BD4680BC31
:10126C00704700BF00ED00E080B483B000AF0346D0
:10127C00FB7197F90730002B0BDBFB7903F01F0296
:10128C00064997F907305B09012000FA02F241F890
:10129C00232000BF0C37BD4680BC704700E100E046
:1012AC0080B483B000AF03463960FB7197F9073007
:1012BC00002B0ADB3B68DAB20C4997F907301201B4
:1012CC00D2B20B4483F800230AE03B68DAB2084937
:1012DC00FB7903F00F03043B1201D2B20B441A76D4
:1012EC0000BF0C37BD4680BC704700BF00E100E07A
:1012FC0000ED00E080B489B000AFF860B9607A60AE
:10130C00FB6803F00703FB61FB69C3F10703042BC4
:10131C0028BF0423BB61FB690433062B02D9FB698C
:10132C00033B00E000237B614FF0FF32BB6902FA04
:10133C0003F3DA43BB681A407B699A404FF0FF31E4
:10134C007B6901FA03F3D9437B680B4013431846BE
:10135C002437BD4680BC704780B582B000AF786042
:10136C007B68013BB3F1807F01D301230FE00A4A74
:10137C007B68013B53600F214FF0FF30FFF790FF6C
:10138C00054B00229A60044B07221A600023184672
:10139C000837BD4680BD00BF10E000E080B582B0CC
:1013AC0000AF78607868FFF72DFF00BF0837BD46A7
:1013BC0080BD80B586B000AF0346B9607A60FB7320
:1013CC0000237B61FFF742FF78617A68B96878691E
:1013DC00FFF790FF024697F90F3011461846FFF7BA
:1013EC005FFF00BF1837BD4680BD80B582B000AF2F
:1013FC000346FB7197F907301846FFF735FF00BF1E
:10140C000837BD4680BD80B582B000AF7860786883
:10141C00FFF7A2FF034618460837BD4680BD000003
:10142C0080B48BB000AF7860396000237B620023FE
:10143C003B6248E101227B6A02FA03F3FB613B68E1
:10144C001B68FA691340BB61BA69FB699A4240F0A8
:10145C0037813B685B68A34A93425ED0A14A9342B2
:10146C0075D8A14A934258D09F4A93426FD89F4A4D
:10147C00934252D09D4A934269D89D4A93424CD094
:10148C009B4A934263D89B4A934246D0994A9342D3
:10149C005DD8122B2AD8122B59D801A252F823F05E
:1014AC00271500080115000813150008551500082C
:1014BC005B1500085B1500085B1500085B15000840
:1014CC005B1500085B1500085B1500085B15000830
:1014DC005B1500085B1500085B1500085B15000820
:1014EC005B150008091500081D150008824A934277
:1014FC0013D02CE03B68DB683B6229E03B68DB687F
:10150C0004333B6224E03B68DB6808333B621FE03A
:10151C003B68DB680C333B621AE03B689B68002B32
:10152C0002D104233B6213E03B689B68012B05D17D
:10153C0008233B627B68FA691A6109E008233B6265
:10154C007B68FA695A6103E000233B6200E000BF4C
:10155C00BB69FF2B01D87B6801E07B6804337B619E
:10156C00BB69FF2B02D87B6A9B0002E07B6A083BBD
:10157C009B003B617B691A680F213B6901FA03F3FD
:10158C00DB431A40396A3B6901FA03F31A437B695E
:10159C001A603B685B6803F08053002B00F090806E
:1015AC00564B9B69554A43F001039361534B9B691E
:1015BC0003F00103BB60BB68514A7B6A9B08023392
:1015CC0052F82330FB607B6A03F003039B000F226D
:1015DC0002FA03F3DB43FA681340FB607B68494A69
:1015EC0093420DD07B68484A934207D07B68474AA8
:1015FC00934201D1022304E0032302E0012300E023
:10160C0000237A6A02F0030292009340FA681343B3
:10161C00FB603B497B6A9B080233FA6841F8232044
:10162C003B685B6803F48013002B06D0384B9A6838
:10163C003749BB6913438B6006E0354B9A68BB692D
:10164C00DB43334913408B603B685B6803F4001346
:10165C00002B06D02E4BDA682D49BB691343CB60A7
:10166C0006E02B4BDA68BB69DB4329491340CB609E
:10167C003B685B6803F40033002B06D0244B5A689C
:10168C002349BB6913434B6006E0214B5A68BB6985
:10169C00DB431F4913404B603B685B6803F48033AA
:1016AC00002B06D01A4B1A681949BB6913430B60FF
:1016BC0006E0174B1A68BB69DB43154913400B60F6
:1016CC007B6A01337B623B681A687B6A22FA03F3FC
:1016DC00002B7FF4AFAE00BF00BF2C37BD4680BCE3
:1016EC00704700BF000032100000311000002210C3
:1016FC000000211000001210000011100010024018
:10170C000000014000080140000C014000100140A5
:10171C000004014080B485B000AF78600B467B803C
:10172C007B689A687B881340002B02D00123FB73E3
:10173C0001E00023FB73FB7B18461437BD4680BCCD
:10174C00704780B483B000AF78600B467B80134643
:10175C007B707B78002B03D07A887B681A6103E05E
:10176C007B881A047B681A6100BF0C37BD4680BCAD
:10177C00704780B485B000AF78600B467B807B6887
:10178C00DB68FB607A88FB6813401A04FB68D9435A
:10179C007B880B401A437B681A6100BF1437BD4627
:1017AC0080BC704780B586B000AF78607B68002B3A
:1017BC0001D101236CE27B681B6803F00103002B51
:1017CC0000F08780924B5B6803F00C03042B0CD069
:1017DC008F4B5B6803F00C03082B12D18C4B5B68AE
:1017EC0003F48033B3F5803F0BD1894B1B6803F4B2
:1017FC000033002B6CD07B685B68002B68D1012315
:10180C0046E27B685B68B3F5803F06D1804B1B6872
:10181C007F4A43F4803313602EE07B685B68002BB7
:10182C000CD17B4B1B687A4A23F480331360784BC2
:10183C001B68774A23F4802313601DE07B685B6888
:10184C00B3F5A02F0CD1724B1B68714A43F4802363
:10185C0013606F4B1B686E4A43F4803313600BE0CC
:10186C006B4B1B686A4A23F480331360684B1B680C
:10187C00674A23F4802313607B685B68002B13D0CA
:10188C00FFF7B6FC386108E0FFF7B2FC02463B6993
:10189C00D31A642B01D90323FAE15D4B1B6803F4C3
:1018AC000033002BF0D014E0FFF7A2FC386108E005
:1018BC00FFF79EFC02463B69D31A642B01D9032324
:1018CC00E6E1534B1B6803F40033002BF0D100E02E
:1018DC0000BF7B681B6803F00203002B63D04C4BEA
:1018EC005B6803F00C03002B0BD0494B5B6803F0D7
:1018FC000C03082B1CD1464B5B6803F48033002B84
:10190C0016D1434B1B6803F00203002B05D07B68F8
:10191C001B69012B01D00123BAE13D4B1B6823F05D
:10192C00F8027B685B69DB00394913430B603AE0D2
:10193C007B681B69002B20D0364B01221A60FFF705
:10194C0057FC386108E0FFF753FC02463B69D31A99
:10195C00022B01D903239BE12D4B1B6803F00203DF
:10196C00002BF0D02A4B1B6823F0F8027B685B69D4
:10197C00DB00274913430B6015E0264B00221A604D
:10198C00FFF736FC386108E0FFF732FC02463B6992
:10199C00D31A022B01D903237AE11D4B1B6803F0E8
:1019AC000203002BF0D17B681B6803F00803002BAB
:1019BC003AD07B689B69002B19D0174B01221A6017
:1019CC00FFF716FC386108E0FFF712FC02463B6992
:1019DC00D31A022B01D903235AE10D4B5B6A03F096
:1019EC000203002BF0D0012000F09AFA1CE00A4B05
:1019FC0000221A60FFF7FCFB38610FE0FFF7F8FBE1
:101A0C0002463B69D31A022B08D9032340E100BFDD
:101A1C000010024000004242800442429E4B5B6A2E
:101A2C0003F00203002BE9D17B681B6803F004036D
:101A3C00002B00F0A6800023FB75974BDB6903F0AD
:101A4C008053002B0DD1944BDB69934A43F08053A8
:101A5C00D361914BDB6903F08053BB60BB680123FE
:101A6C00FB758E4B1B6803F48073002B18D18B4BCA
:101A7C001B688A4A43F480731360FFF7B9FB386123
:101A8C0008E0FFF7B5FB02463B69D31A642B01D97A
:101A9C000323FDE0814B1B6803F48073002BF0D013
:101AAC007B68DB68012B06D17B4B1B6A7A4A43F0BF
:101ABC00010313622DE07B68DB68002B0CD1764BA5
:101ACC001B6A754A23F001031362734B1B6A724A3B
:101ADC0023F0040313621CE07B68DB68052B0CD13C
:101AEC006D4B1B6A6C4A43F0040313626A4B1B6A0E
:101AFC00694A43F0010313620BE0674B1B6A664AA9
:101B0C0023F001031362644B1B6A634A23F0040342
:101B1C0013627B68DB68002B15D0FFF769FB38611B
:101B2C000AE0FFF765FB02463B69D31A41F28832A3
:101B3C00934201D90323ABE0574B1B6A03F002031A
:101B4C00002BEED014E0FFF753FB38610AE0FFF7EF
:101B5C004FFB02463B69D31A41F28832934201D9BA
:101B6C00032395E04C4B1B6A03F00203002BEED1D0
:101B7C00FB7D012B05D1484BDB69474A23F0805391
:101B8C00D3617B68DB69002B00F08180424B5B6882
:101B9C0003F00C03082B61D07B68DB69022B46D168
:101BAC003F4B00221A60FFF723FB386108E0FFF778
:101BBC001FFB02463B69D31A022B01D9032367E0B2
:101BCC00354B1B6803F00073002BF0D17B681B6A4C
:101BDC00B3F5803F08D1304B5B6823F400327B684F
:101BEC009B682D4913434B602B4B5B6823F4741299
:101BFC007B68196A7B685B6A0B43274913434B600C
:101C0C00274B01221A60FFF7F3FA386108E0FFF75F
:101C1C00EFFA02463B69D31A022B01D9032337E0B2
:101C2C001D4B1B6803F00073002BF0D02FE01C4BF6
:101C3C0000221A60FFF7DCFA386108E0FFF7D8FAE7
:101C4C0002463B69D31A022B01D9032320E0124B25
:101C5C001B6803F00073002BF0D118E07B68DB6984
:101C6C00012B01D1012313E00B4B5B68FB60FB687C
:101C7C0003F480327B681B6A9A4206D1FB6803F43A
:101C8C0070127B685B6A9A4201D0012300E000234A
:101C9C0018461837BD4680BD001002400070004049
:101CAC006000424280B584B000AF786039607B68D8
:101CBC00002B01D10123D0E06A4B1B6803F0070312
:101CCC003A689A4210D9674B1B6823F007026549A2
:101CDC003B6813430B60634B1B6803F007033A68C4
:101CEC009A4201D00123B8E07B681B6803F0020321
:101CFC00002B20D07B681B6803F00403002B05D05D
:101D0C00594B5B68584A43F4E06353607B681B682B
:101D1C0003F00803002B05D0534B5B68524A43F485
:101D2C0060535360504B5B6823F0F0027B689B68F8
:101D3C004D4913434B607B681B6803F00103002B78
:101D4C0040D07B685B68012B07D1474B1B6803F4C1
:101D5C000033002B15D101237FE07B685B68022BDD
:101D6C0007D1414B1B6803F00073002B09D10123F1
:101D7C0073E03D4B1B6803F00203002B01D10123E0
:101D8C006BE0394B5B6823F003027B685B68364978
:101D9C0013434B60FFF72CFAF8600AE0FFF728FAC0
:101DAC000246FB68D31A41F28832934201D90323CD
:101DBC0053E02D4B5B6803F00C027B685B689B0067
:101DCC009A42EBD1274B1B6803F007033A689A42FF
:101DDC0010D2244B1B6823F0070222493B681343A3
:101DEC000B60204B1B6803F007033A689A4201D042
:101DFC00012332E07B681B6803F00403002B08D03E
:101E0C00194B5B6823F4E0627B68DB68164913436B
:101E1C004B607B681B6803F00803002B09D0124B46
:101E2C005B6823F460527B681B69DB000E4913432B
:101E3C004B6000F021F802460B4B5B681B0903F06A
:101E4C000F030A49CB5C22FA03F3094A1360094BCE
:101E5C001B681846FFF78AF9002318461037BD4651
:101E6C0080BD00BF0020024000100240DC280008AA
:101E7C00140000201800002080B487B000AF0023AD
:101E8C00FB600023BB6000237B6100237B6000238D
:101E9C003B611E4B5B68FB60FB6803F00C03042B7F
:101EAC0002D0082B03D027E0194B3B6127E0FB68DD
:101EBC009B0C03F00F03174AD35C7B60FB6803F4A5
:101ECC008033002B10D0114B5B685B0C03F00103CB
:101EDC00114AD35CBB607B680D4A02FB03F2BB6802
:101EEC00B2FBF3F37B6104E07B680C4A02FB03F367
:101EFC007B617B693B6102E0054B3B6100BF3B6949
:101F0C0018461C37BD4680BC704700BF001002400D
:101F1C0000127A00EC280008FC28000800093D009B
:101F2C0080B485B000AF78600A4B1B680A4AA2FBEC
:101F3C0003235B0A7A6802FB03F3FB6000BFFB68B8
:101F4C005A1EFA60002BF9D100BF00BF1437BD46F2
:101F5C0080BC704714000020D34D621080B582B055
:101F6C0000AF78607B68002B01D1012341E07B68D6
:101F7C0093F83D30DBB2002B06D17B68002283F84E
:101F8C003C207868FFF75AF87B68022283F83D20E2
:101F9C007B681A687B6804331946104600F06EFAA9
:101FAC007B68012283F846207B68012283F83E205F
:101FBC007B68012283F83F207B68012283F8402054
:101FCC007B68012283F841207B68012283F8422040
:101FDC007B68012283F843207B68012283F844202C
:101FEC007B68012283F845207B68012283F83D2021
:101FFC00002318460837BD4680BD000080B485B06C
:10200C0000AF78607B6893F83D30DBB2012B01D0D8
:10201C00012335E07B68022283F83D207B681B6836
:10202C00DA687B681B6842F00102DA607B681B6827
:10203C00164A934209D07B681B68B3F1804F04D0D9
:10204C007B681B68124A934211D17B681B689B68A2
:10205C0003F00703FB60FB68062B10D07B681B6842
:10206C001A687B681B6842F001021A6007E07B6803
:10207C001B681A687B681B6842F001021A60002317
:10208C0018461437BD4680BC704700BF002C014079
:10209C000004004080B582B000AF78607B681B689C
:1020AC001B6903F00203022B22D17B681B68DB68DF
:1020BC0003F00203022B1BD17B681B686FF002023A
:1020CC001A617B6801221A777B681B689B6903F095
:1020DC000303002B03D0786800F0B4F905E07868AE
:1020EC0000F0A7F9786800F0B6F97B6800221A773F
:1020FC007B681B681B6903F00403042B22D17B68EB
:10210C001B68DB6803F00403042B1BD17B681B6882
:10211C006FF004021A617B6802221A777B681B68D5
:10212C009B6903F44073002B03D0786800F08AF9A4
:10213C0005E0786800F07DF9786800F08CF97B6830
:10214C0000221A777B681B681B6903F00803082BB5
:10215C0022D17B681B68DB6803F00803082B1BD1BA
:10216C007B681B686FF008021A617B6804221A777F
:10217C007B681B68DB6903F00303002B03D07868D2
:10218C0000F060F905E0786800F053F9786800F029
:10219C0062F97B6800221A777B681B681B6903F065
:1021AC001003102B22D17B681B68DB6803F0100333
:1021BC00102B1BD17B681B686FF010021A617B68B7
:1021CC0008221A777B681B68DB6903F44073002BC9
:1021DC0003D0786800F036F905E0786800F029F94A
:1021EC00786800F038F97B6800221A777B681B68E6
:1021FC001B6903F00103012B0ED17B681B68DB68A4
:10220C0003F00103012B07D17B681B686FF00102FF
:10221C001A617868FEF70AFE7B681B681B6903F07D
:10222C008003802B0ED17B681B68DB6803F0800376
:10223C00802B07D17B681B686FF080021A6178686D
:10224C0000F06BFA7B681B681B6903F04003402BA2
:10225C000ED17B681B68DB6803F04003402B07D171
:10226C007B681B686FF040021A61786800F0FCF81C
:10227C007B681B681B6903F02003202B0ED17B6845
:10228C001B68DB6803F02003202B07D17B681B68DD
:10229C006FF020021A61786800F036FA00BF083738
:1022AC00BD4680BD80B584B000AF78603960002336
:1022BC00FB737B6893F83C30012B01D10223B4E013
:1022CC007B68012283F83C207B68022283F83D2046
:1022DC007B681B689B68BB60BB6823F07703BB60A3
:1022EC00BB6823F47F43BB607B681B68BA689A6049
:1022FC003B681B68B3F5005F3ED0B3F5005F00F29E
:10230C008780B3F5805F00F08680B3F5805F7FD85F
:10231C00702B1AD0702B7BD8602B50D0602B77D8B9
:10232C00502B3CD0502B73D8402B58D0402B6FD80F
:10233C00302B64D0302B6BD8202B60D0202B67D85F
:10234C00002B5CD0102B5AD062E07B6818683B687D
:10235C0099683B685A683B68DB6800F05EF97B68FB
:10236C001B689B68BB60BB6843F07703BB607B68F2
:10237C001B68BA689A604FE07B6818683B6899687C
:10238C003B685A683B68DB6800F047F97B681B6860
:10239C009A687B681B6842F480429A603CE07B68D8
:1023AC0018683B6859683B68DB681A4600F0BEF851
:1023BC007B681B685021184600F015F92CE07B68EF
:1023CC0018683B6859683B68DB681A4600F0DCF813
:1023DC007B681B686021184600F005F91CE07B68DF
:1023EC0018683B6859683B68DB681A4600F09EF831
:1023FC007B681B684021184600F0F5F80CE07B6800
:10240C001A683B681B681946104600F0ECF803E0AC
:10241C000123FB7300E000BF7B68012283F83D20A1
:10242C007B68002283F83C20FB7B18461037BD46A6
:10243C0080BD80B483B000AF786000BF0C37BD4660
:10244C0080BC704780B483B000AF786000BF0C379D
:10245C00BD4680BC704780B483B000AF786000BFCD
:10246C000C37BD4680BC704780B483B000AF786039
:10247C0000BF0C37BD4680BC7047000080B485B0EF
:10248C0000AF786039607B681B68FB607B68254A0D
:10249C00934207D07B68B3F1804F03D07B68224A0C
:1024AC00934208D1FB6823F07003FB603B685B68C8
:1024BC00FA681343FB607B681A4A934207D07B6827
:1024CC00B3F1804F03D07B68174A934208D1FB6865
:1024DC0023F44073FB603B68DB68FA681343FB60D2
:1024EC00FB6823F080023B685B691343FB607B68ED
:1024FC00FA681A603B689A687B68DA623B681A680B
:10250C007B689A627B68074A934203D13B681A69DD
:10251C007B681A637B6801225A6100BF1437BD4681
:10252C0080BC7047002C01400004004080B487B090
:10253C0000AFF860B9607A60FB681B6A7B61FB686E
:10254C001B6A23F00102FB681A62FB689B693B6102
:10255C003B6923F0F0033B617B681B013A69134331
:10256C003B617B6923F00A037B617A69BB68134387
:10257C007B61FB683A699A61FB687A691A6200BFF1
:10258C001C37BD4680BC704780B487B000AFF86084
:10259C00B9607A60FB681B6A7B61FB681B6A23F07D
:1025AC001002FB681A62FB689B693B613B6923F470
:1025BC0070433B617B681B033A6913433B617B6946
:1025CC0023F0A0037B61BB681B017A6913437B6119
:1025DC00FB683A699A61FB687A691A6200BF1C371A
:1025EC00BD4680BC704780B485B000AF7860396060
:1025FC007B689B68FB60FB6823F07003FB603A68A8
:10260C00FB68134343F00703FB607B68FA689A602E
:10261C0000BF1437BD4680BC704780B487B000AF94
:10262C00F860B9607A603B60FB689B687B617B6992
:10263C0023F47F437B613B681A027B681A43BB68B7
:10264C0013437A6913437B61FB687A699A6000BF14
:10265C001C37BD4680BC704780B485B000AF786035
:10266C0039607B6893F83C30012B01D1022341E0A7
:10267C007B68012283F83C207B68022283F83D2092
:10268C007B681B685B68FB607B681B689B68BB6036
:10269C00FB6823F07003FB603B681B68FA6813430C
:1026AC00FB607B681B68FA685A607B681B68144A7D
:1026BC00934209D07B681B68B3F1804F04D07B68D0
:1026CC001B68104A93420CD1BB6823F08003BB609B
:1026DC003B685B68BA681343BB607B681B68BA686D
:1026EC009A607B68012283F83D207B68002283F886
:1026FC003C20002318461437BD4680BC704700BFF1
:10270C00002C01400004004080B483B000AF78601E
:10271C0000BF0C37BD4680BC704780B483B000AF9F
:10272C00786000BF0C37BD4680BC704770B5002682
:10273C000C4D0D4C641BA410A64209D100F030F8CE
:10274C0000260A4D0A4C641BA410A64205D170BD8C
:10275C0055F8043B98470136EEE755F8043B98478B
:10276C000136F2E7002900080029000800290008BA
:10277C00042900080A44914200F1FF3300D170474C
:10278C0010B511F8014B914203F8014FF9D110BD6E
:10279C0003460244934200D1704703F8011BF9E74A
:1027AC00F8B500BFF8BC08BC9E467047F8B500BF32
:0827BC00F8BC08BC9E46704702
:1027C4000000000000000000000000000000000005
:1027D40000000000000000000100000001000000F3
:1027E40000000000000000000100000001000000E3
:1027F40001000000010000000000000000000000D3
:1028040001000000000000000000000001000000C2
:1028140000000000000000000000000000000000B4
:1028240000000000010000000100000000000000A2
:102834000100000000000000000000000100000092
:102844000100000000000000000000000000000083
:102854000100000000000000000000000100000072
:102864000000000000000000000000000100000063
:102874000000000000000000000000000000000054
:102884000000000000000000000000000000000044
:102894000100000001000000010000000100000030
:1028A4000000000000000000000000000000000024
:1028B4000000000000000000000000000000000014
:1028C4000000000000000000000000000100000003
:1028D40000000000000000000000000000000000F4
:1028E4000102030406070809020304050607080990
:0C28F4000A0B0C0D0E0F1010010200006A
:042900003101000899
:042904000D010008B9
:1029080001000000010000000100000001000000BB
:10291800010000020024F400100000000100000083
:0400000508001101DD
:00000001FF
